:020000040800F2
:1000000000500020151E0008A91D0008AB1D0008A7
:10001000AD1D0008AF1D0008B11D00080000000064
:10002000000000000000000000000000B31D0008F8
:10003000B51D000800000000B71D0008B91D00082C
:100040005D1E00085D1E00085D1E00085D1E0008A4
:100050005D1E00085D1E00085D1E00085D1E000894
:100060005D1E00085D1E00085D1E00085D1E000884
:100070005D1E00085D1E00085D1E00085D1E000874
:100080005D1E00085D1E00085D1E00085D1E000864
:100090005D1E00085D1E00085D1E00085D1E000854
:1000A0005D1E00085D1E00085D1E00085D1E000844
:1000B000BD1D00085D1E00085D1E00085D1E0008D5
:1000C0005D1E00085D1E00085D1E00085D1E000824
:1000D0005D1E00085D1E00085D1E00085D1E000814
:1000E0005D1E00085D1E00085D1E00080000000087
:1000F0000000000000000000000000000000000000
:0C01000000000000000000005FF808F1A3
:10010C0010B5054C237833B9044B13B10448AFF345
:10011C0000800123237010BD10000020000000009F
:10012C00B81E000808B5034B1BB103490348AFF3D5
:10013C00008008BD0000000014000020B81E00085C
:10014C0038B50E4B054618784FF47A73B3FBF0F3C1
:10015C000B4A1068B0FBF3F000F008FB044658B9EA
:10016C000F2D09D8024629464FF0FF3000F0BEFA99
:10017C00044B20461D6038BD012038BD0000002016
:10018C000C00002004000020074A08B51368032067
:10019C0043F01003136000F097FA0020FFF7D0FF34
:1001AC0001F054FD002008BD00200240034A044B1E
:1001BC0011681B780B441360704700BF3800002097
:1001CC0000000020014B1868704700BF3800002069
:1001DC00F7B5002604460D460196FFF7F3FF23689A
:1001EC0007469A68D20508D50120A36A84F82460D2
:1001FC0043F02003A36203B0F0BD5A68D60503D4C4
:10020C00DB6A13F4700F3BD03A4B02201E6800F0EF
:10021C00B1FE2368384A1969B6FBF0F01142374A2F
:10022C004FD1DE6836490E424BD11969114259D172
:10023C00DA68344B1A4214BF2923142300FB03F64B
:10024C00019B9E4220D96B1C05D05DB1FFF7BAFF14
:10025C00C01B854206D3019B01330193F0E7681C58
:10026C000FD045B9A36A032043F00403A362002313
:10027C0084F82430BFE7FFF7A5FFC01B8542F1D3FC
:10028C00226813689907EAD56FF01203226813608D
:10029C00A36A43F40073A362936803F46023B3F579
:1002AC00602F25D1E3681BBBA36A23F48073A36280
:1002BC00A06A10F480501BD1A36A43F00103A3621F
:1002CC0099E71969114203D1D9680E4A11420BD032
:1002DC0019690D4A114209D1DB68134214BFFC2382
:1002EC005423ABE72923A9E75423A7E7FC23A5E76D
:1002FC00002080E70C00002024499224922449120B
:10030C002449920092244900499224000368D86C35
:10031C0070470000002373B5019390F82430012B33
:10032C0074D001234D6880F82430062D02684FEA02
:10033C0085030C6825D82B441F25566B053B9D4027
:10034C0026EA050504FA03F32B435363092C4FEA01
:10035C0044038D682FD907262344D1681E3B9E4049
:10036C0021EA060105FA03F30B43D360A4F1100351
:10037C00012B2BD90023002280F82420184602B030
:10038C0070BD0C2D0BD82B441F25166B233B9D40A9
:10039C0026EA050504FA03F32B431363D6E72B4433
:1003AC001F25D66A413B9D4026EA050504FA03F356
:1003BC002B43D362CAE70726116923449E4021EAE6
:1003CC00060105FA03F30B431361CFE7104B9A4276
:1003DC0016D193681B02CDD49368102C43F4000300
:1003EC009360C7D10B4B0C4A1B68B3FBF2F20A2388
:1003FC0053430193019B002BBCD0019B013BF8E7BD
:10040C00836A43F0200383620123B4E70223B5E738
:10041C00002401400C00002040420F00002373B563
:10042C000193036804469A68D20702D5002002B0F3
:10043C0070BD9A6842F001029A60124B124A1B6816
:10044C00B3FBF2F30193019BC3B9FFF7BBFE064666
:10045C0023689D6815F00105E8D1FFF7B3FE801BFA
:10046C000228F5D9A36A84F8245043F01003A36240
:10047C00E36A012043F00103E362D8E7019B013BEF
:10048C00E0E700BF0C00002040420F0090F8243041
:10049C0010B5012B044654D0012380F82430FFF70B
:1004AC00BDFF002849D1A36A274A23F4407323F0E7
:1004BC00010343F48073A3622368934204D123495C
:1004CC004A6812F4702F2ED1A26A22F48012A26212
:1004DC005A68520541BFA26A22F4405242F480523B
:1004EC00A262A26A12F480521CBFE26A22F00602D7
:1004FC00E262002284F824206FF002021A609A68EB
:10050C0002F46022B2F5602F13D10F4A934205D149
:10051C00A2F58062526812F4702F0AD19A6842F4E4
:10052C00A0029A6010BDA26A42F48012A2624A68CC
:10053C00CFE79A6842F48012F3E7002384F8243062
:10054C0010BD022010BD00BF002801400024014056
:10055C0038B5036804469A68D20701D4002038BD28
:10056C009A6822F001029A60FFF72CFE0546236878
:10057C009B68DB07F2D5FFF725FE401B0228F6D956
:10058C00A36A012043F01003A362E36A43F0010362
:10059C00E36238BD70B50446002871D0836A23B974
:1005AC00C36280F8243001F073FB2046FFF7D0FFC4
:1005BC00A36A13F0100FA36A64D1002862D1E16919
:1005CC0023F48853626823F0020343F002030A43C6
:1005DC00A168A362E368B1F5807F42EA430238D098
:1005EC00012914BF06464FF480766569012D07D1A9
:1005FC00002B30D1A369013B46EA433545F4006634
:10060C002368B1F5807F5D6825F4694545EA0605E8
:10061C005D609E681D4D05EA060545EA02059D6074
:10062C0001D0012920D1216901390905DD6A25F4A0
:10063C0070052943D9629968154B0B409A4215D124
:10064C000023E362A36A23F0030343F00103A362D4
:10065C0070BD0E46C9E7A36A43F02003A362E36AA8
:10066C0043F00103E362CBE70021DFE7A36A23F049
:10067C00120343F01003A362E36A43F00103E36245
:10068C00012070BD43F01003A362F9E7FDF7E1FF11
:10069C00FE0E1FFF90F8243010B5012B044611D02C
:1006AC00012380F82430FFF753FF38B9A36A23F4F1
:1006BC00885323F0010343F00103A362002384F861
:1006CC00243010BD022010BD074A0002D36800F48C
:1006DC00E06023F4E0631B041B0C43F0BF6343F4A2
:1006EC0000330343D360704700ED00E0174B30B587
:1006FC00DC68C4F30224C4F10703251D042B28BFB6
:10070C000423062D4FF0010598BF002405FA03F3CE
:10071C0003F1FF3388BF033C1940A14005FA04F4F0
:10072C00013C2240002842EA01024FEA0212AFBF0C
:10073C0000F16040064B00F00F00D2B2A5BFD2B260
:10074C0000F561401A5480F8002330BD00ED00E044
:10075C0014ED00E00123420900F01F0003FA00F041
:10076C00014B43F82200704700E100E00138B0F182
:10077C00807F0AD2F021064B064A586082F823107B
:10078C000020072298601A6070470120704700BF54
:10079C0010E000E000ED00E02DE9F74F00221646D6
:1007AC00654BDFF8A4E1DFF8A4C14FF001080C6839
:1007BC0008FA06F808EA0404A0457FD14D68122D0A
:1007CC0000F0AF8000F28880022D00F0A7807CD86A
:1007DC00002D00F08E80012D00F09E804FF00F094F
:1007EC00FF2C93BF824606F18045083DD0F800B03F
:1007FC0092BFB500D0F804B0AD0009FA05F82BEAA9
:10080C00080802FA05F588BF00F1040A48EA050554
:10081C00CAF80050D1F804A01AF0805F4ED0474DB2
:10082C00464FAD6926F0030845F00105BD61BD6971
:10083C0008F1804805F00105019508F5803806F0AF
:10084C00030B019D4FEA8B0BD8F8085009FA0BF9F2
:10085C0025EA09093A4DA84268D005F58065A842F9
:10086C0066D005F58065A84264D005F58065A84280
:10087C000CBF0325042505FA0BF545EA0905C8F854
:10088C0008501D681AF4803F14BF2543A5431D6012
:10089C005D681AF4003F14BF2543A5435D609D6855
:1008AC001AF4801F14BF2543A5439D60DD681AF41C
:1008BC00001F14BF2C4325EA0404DC600136102E03
:1008CC007FF473AF03B0BDE8F08F032D22D0112D50
:1008DC0084D1CA68043281E71A4FBD4209D012D8BC
:1008EC00DFF86C904D4504D009F580394D457FF407
:1008FC0075AF8A68C2B1012A0CBFC0F81080C0F86D
:10090C00148008226AE77545F3D06545F1D0DFF80D
:10091C004490EBE7002261E7CA685FE7CA680832D7
:10092C005CE7CA680C3259E7042257E70025A2E7B6
:10093C000125A0E702259EE70004014000100240BB
:10094C00000801400000211000003110000032109E
:10095C0000001110000022108368194214BF0120FE
:10096C00002070470AB1016170470904FBE70000E1
:10097C0003682DE9F341DB07054610D42B689F076C
:10098C005ED42B68190700F195802B685A0700F18B
:10099C00BF80EA69002A40F02D81002014E0904CC1
:1009AC00636803F00C03042B07D0636803F00C039B
:1009BC00082B0CD16368DE0309D523689C03DDD5B5
:1009CC006B68002BDAD1012002B0BDE8F0816B68B6
:1009DC00B3F5803F10D1236843F480332360FFF7D5
:1009EC00F1FB064623689803C8D4FFF7EBFB801B8A
:1009FC006428F7D90320E7E79BB9236823F48033F5
:100A0C002360236823F480232360FFF7DBFB064677
:100A1C0023689903B2D5FFF7D5FB801B6428F7D95F
:100A2C00E8E7B3F5A02F236803D143F480232360B8
:100A3C00D1E723F480332360236823F48023CDE7AC
:100A4C00674C636813F00C0F07D0636803F00C035A
:100A5C00082B10D16368DA030DD423689B0702D5E9
:100A6C002B69012BAFD123686A6923F0F80343EAA1
:100A7C00C203236085E72A695A4B6AB101221A60C6
:100A8C00FFF7A0FB064623689F07ECD4FFF79AFB01
:100A9C00801B0228F7D9ADE71A60FFF793FB0646D7
:100AAC00236898077FF56DAFFFF78CFB801B02283E
:100ABC00F6D99FE7AA694A4C4B4BDAB101221A606E
:100ACC00FFF780FB0646636A9B070DD54FF4FA527D
:100ADC00464B1B68B3FBF2F3019300BF019B5A1EFC
:100AEC000192002BF9D150E7FFF76CFB801B022819
:100AFC00E9D97FE71A60FFF765FB0646636A9F0733
:100B0C007FF543AFFFF75EFB801B0228F6D971E738
:100B1C00334CE369D80024D40127E36943F08053B4
:100B2C00E361E36903F080530093009B304E33681C
:100B3C00D90518D5EB68012B26D1236A43F00103A4
:100B4C002362FFF73FFB41F288368046236A9B07FE
:100B5C003FD5002F3FF41DAFE36923F08053E361D1
:100B6C0017E70027E2E7336843F480733360FFF73D
:100B7C0029FB80463368DA05DCD4FFF723FBA0EBB6
:100B8C0008006428F6D935E7ABB9236A41F28838F6
:100B9C0023F001032362236A23F004032362FFF78B
:100BAC0011FB0646236A9807D3D5FFF70BFB801B76
:100BBC004045F7D91EE7052B236A03D143F0040304
:100BCC002362BAE723F001032362236A23F00403B0
:100BDC00B6E7FFF7F7FAA0EB0800B042B6D909E781
:100BEC000010024000004242800442420C000020EF
:100BFC0000700040224C636803F00C03082B3FF498
:100C0C00E2AE00231F4E022A33602BD1FFF7DAFA33
:100C1C000746236899011FD42B6AB3F5803F05D191
:100C2C006268A96822F400320A436260696A6268E9
:100C3C000B4322F474121343636001233360FFF7F8
:100C4C00C1FA054623689A013FF5A7AEFFF7BAFA39
:100C5C00401B0228F6D9CDE6FFF7B4FAC01B0228D8
:100C6C00D7D9C7E6FFF7AEFA054623689B017FF597
:100C7C0094AEFFF7A7FA401B0228F6D9BAE600BFDC
:100C8C00001002406000424230B5194B87B002ACF4
:100C9C0003F11005224618685968083303C2AB42A9
:100CAC001446F7D101238DF80430022311498DF835
:100CBC0005304B6803F00C02082A17D1C3F38342AA
:100CCC0006A80244DB0312F8102C0CD54B680A481A
:100CDC00C3F34043504306AA134413F8143CB0FB2F
:100CEC00F3F007B030BD05485043FAE70248F8E787
:100CFC00D01E00080010024000127A0000093D00CE
:100D0C00544A2DE9F0411368054603F007038B4262
:100D1C000E462AD329688C0734D4CA0747D44D4AC7
:100D2C00136803F007039E42C0F082802A684A4C85
:100D3C0012F0040F40F08780130706D563682A6908
:100D4C0023F4605343EAC2036360FFF79DFF6368BB
:100D5C00424AC3F30313D35CD840414B18600020C4
:100D6C00FFF7EEF90020BDE8F081136823F00703CC
:100D7C000B431360136803F007039942CAD0012098
:100D8C00BDE8F081344B11F0040F1EBF5A6842F4D9
:100D9C00E0625A60080742BF5A6842F460525A60D7
:100DAC005A68A86822F0F00202435A60B5E76A68F4
:100DBC00294C012A23681CD113F4003FDFD063684F
:100DCC0041F2883823F0030313436360FFF7FAF909
:100DDC006B680746012B14D1636803F00C03042BDA
:100DEC009DD0FFF7EFF9C01B4045F5D90320BDE8B6
:100DFC00F081022A02D113F0007FDFE713F0020F1B
:100E0C00DCE7022B0FD1636803F00C03082B86D0B0
:100E1C00FFF7D8F9C01B4045F5D9E7E7FFF7D2F942
:100E2C00C01B4045E2D8636813F00C0FF6D176E78F
:100E3C00136823F0070333431360136803F00703AD
:100E4C009E429CD172E76368E96823F4E0630B432C
:100E5C00636071E70020024000100240F01E0008A1
:100E6C000C000020044B054A5B68C3F3C223D35C1F
:100E7C00034A1068D840704700100240001F000859
:100E8C000C00002003682DE9F341D907054620D555
:100E9C00354CE369DA0032D40127E36943F080531F
:100EAC00E361E36903F080530193019B2F4E336898
:100EBC00DB0526D5236A13F4407336D1236A6A689E
:100ECC0023F44073134323621FB1E36923F080536F
:100EDC00E3612868830706D5234AA968536823F47D
:100EEC0040430B43536010F010001BD01E4AE968BE
:100EFC005368002023F480030B43536012E0002757
:100F0C00D4E7336843F480733360FFF75BF98046B2
:100F1C003368D805CED4FFF755F9A0EB0800642848
:100F2C00F6D9032002B0BDE8F0816A6802F4407281
:100F3C009342C3D001200E4A236A1060002023F490
:100F4C00407110602162D907B8D5FFF73BF941F227
:100F5C0088380646236A9A07B0D4FFF733F9801B0A
:100F6C004045F7D9DDE700BF00100240007000409B
:100F7C004004424270B50446354B86B002AD03F1D5
:100F8C0010062A4618685968083303C2B34215463E
:100F9C00F7D101238DF8043002239C428DF80530E3
:100FAC0047D0102C17D0012C4FD140F20231294AD6
:100FBC00136A1940B1F5817F44D003F44073B3F543
:100FCC00007F2DD149F64040536A13F0020F08BF41
:100FDC00002006B070BD1F4B5968186810F0807067
:100FEC00F7D0C1F3834206A8024412F8100CCA03CE
:100FFC0041BF5A6806A9C2F34042521844BF12F8C6
:10100C00141C154A5B684CBFB2FBF1F2134A5B022D
:10101C0002FB00F0DDD403234000B0FBF3F0D8E773
:10102C00B3F5407F11D113684FF2244013F4003F05
:10103C00CDE7FFF717FF074B5B68C3F38133013331
:10104C005B00EAE74FF40040C3E70020C1E700BFB4
:10105C00E01E00080010024000127A0000093D005A
:10106C00036A70B523F001030362036A4468826962
:10107C000D6822F073022A438D6823F002032B4380
:10108C000A4DA8420BD1CD6823F008032B438E697F
:10109C004D6924F44074354323F004032C4344601D
:1010AC0082614A684263036270BD00BF002C01403C
:1010BC00036A70B523F480730362036A4468C269DF
:1010CC000D6822F073022A438D6823F4007343EAFF
:1010DC0005230B4DA8420DD1CD6823F4006343EAE0
:1010EC0005238E694D6924F44054354323F4806301
:1010FC0044EA05144460C2614A68C263036270BD6D
:10110C00002C0140036A30B523F480530362036A58
:10111C004468C2690D6822F4E64242EA05228D68F1
:10112C0023F4005343EA0533064DA84202BF4D6930
:10113C0024F4804444EA85144460C2614A68026421
:10114C00036230BD002C014003680020DA6842F0D5
:10115C000102DA601A6842F001021A60704790F8D6
:10116C003C3070B5012B4FF002031CD0012280F8EB
:10117C003D30036880F83C209A6822F47F4222F0CC
:10118C0077029A600A68402A79D019D8102A00F0A0
:10119C0093800AD8002A00F08980012380F83D3022
:1011AC00002380F83C30184670BD202A00F08A805D
:1011BC00302AF2D19A6822F0700242F0370236E0FF
:1011CC00702A36D01BD8502A42D0602AE5D11C6A2E
:1011DC004D6824F01004CE681C6299691A6A21F4D7
:1011EC00704122F0A00242EA051241EA06319961EF
:1011FC001A629A6822F0700242F0670217E0B2F5A8
:10120C00805F11D0B2F5005FC7D18A684D689C68C9
:10121C00C9682A4324F47F4442EA012222439A609B
:10122C009A6842F4804202E09A6822F007029A60BF
:10123C00B3E78A684D689C68C9682A4324F47F44E4
:10124C0042EA012222439A609A6842F07702EEE762
:10125C004C68CE68196A1D6A21F00A0125F0010557
:10126C001D629A69214322F0F00242EA06129A6149
:10127C0019629A6822F0700242F05702D7E74C6864
:10128C00CE68196A1D6A21F00A0125F001051D625C
:10129C009A69214322F0F00242EA06129A6119621D
:1012AC009A6822F0700242F04702C0E79A6822F076
:1012BC00700242F00702BAE79A6822F0700242F01C
:1012CC001702B4E79A6822F0700242F02702AEE7E8
:1012DC007047704770477047036810B51A69044629
:1012EC0091070ED5DA6892070BD56FF002021A61DE
:1012FC0001229B6902779B0777D0FFF7EAFF002357
:10130C00237723681A69500710D5DA6851070DD571
:10131C006FF004021A6102229B69227713F4407F5A
:10132C00204668D0FFF7D5FF0023237723681A697E
:10133C0012070FD5DA6810070CD56FF008021A6186
:10134C000422DB692277990720465AD0FFF7C1FFA8
:10135C000023237723681A69D20610D5DA68D006E1
:10136C000DD56FF010021A610822DB69227713F495
:10137C00407F20464BD0FFF7ACFF00232377236838
:10138C001A69D10708D5DA68D20705D56FF00102C2
:10139C0020461A6100F0E0F923681A69100608D596
:1013AC00DA68110605D56FF0800220461A6100F04C
:1013BC009AF923681A69520608D5DA68500605D5D9
:1013CC006FF0400220461A61FFF785FF23681A6907
:1013DC00910622D5DA6892061FD56FF020022046BE
:1013EC00BDE810401A6100F07DB9FFF771FF20468F
:1013FC00FFF770FF83E7FFF76BFF2046FFF76AFFED
:10140C0092E7FFF765FF2046FFF764FFA0E7FFF7C1
:10141C005FFF2046FFF75EFFAFE710BD1A4A036877
:10142C0090420AD0B0F1804F07D0A2F5943290428E
:10143C0003D002F58062904215D14A6823F0700304
:10144C001343114A90420AD0B0F1804F07D0A2F555
:10145C009432904203D002F58062904203D1CA6864
:10146C0023F4407313434A6923F08003134303604E
:10147C008B68C3620B688362034B984204BF0B6991
:10148C000363012343617047002C014010B50446EF
:10149C00A0B190F83D3003F0FF021BB980F83C205E
:1014AC0000F038FC0223206884F83D30211DFFF742
:1014BC00B5FF0123002084F83D3010BD012010BD84
:1014CC0010B50446A0B190F83D3003F0FF021BB9F3
:1014DC0080F83C2000F00AFC0223206884F83D30A0
:1014EC00211DFFF79BFF0123002084F83D3010BD28
:1014FC00012010BD036A70B523F010030362036A68
:10150C00446882690D6822F4E64242EA05228D683D
:10151C0023F0200343EA05130B4DA8420DD1CD68EF
:10152C0023F0800343EA05138E694D6924F440646B
:10153C00354323F0400344EA8504446082614A68E1
:10154C008263036270BD00BF002C014038B590F877
:10155C003C300446012B4FF0020025D0012384F8C7
:10156C003D0084F83C300C2A18D8DFE802F007174D
:10157C0017171E1717172F17171740002068FFF79C
:10158C006FFD236809699A6942F008029A619A69A9
:10159C0022F004029A619A690A439A61012300209D
:1015AC0084F83D3084F83C0038BD2068FFF7A2FF7A
:1015BC00236809699A6942F400629A619A6922F473
:1015CC0080629A619A6942EA0122E6E72068FFF795
:1015DC006FFD23680969DA6942F00802DA61DA6999
:1015EC0022F00402DA61DA690A43DA61D6E720688C
:1015FC00FFF788FD23680969DA6942F40062DA6151
:10160C00DA6922F48062DA61DA6942EA0122ECE7F3
:10161C0010B50124036A8C4023EA04030362036AB5
:10162C008A401A43026210BD10B5044601220068BC
:10163C00FFF7EEFF2368064A0020934202BF5A6C64
:10164C0042F400425A641A6842F001021A6010BD5A
:10165C00002C014090F83C30012B1FD0CB688A68DD
:10166C0023F4407313434A6823F4806313430A68DA
:10167C0023F4006313430A6923F4805313434A6928
:10168C0023F4005313438A6923F440431343026841
:10169C005364002380F83C30184670470220704792
:1016AC0090F83C3010B5012B4FF0020318D080F8A5
:1016BC003D3003680C685A68496822F070025A6021
:1016CC005A6822435A609A6822F080029A609A689B
:1016DC000A439A60012380F83D30002380F83C30A7
:1016EC00184610BD70477047282210B594B00DEB0A
:1016FC000200002100F0D2FB142200210DEB0200AD
:10170C0000F0CCFB0021102201A800F0C7FB4FF425
:10171C008033022401220B9312934FF4E0130AA896
:10172C000A920E9213931194FFF722F90F234FF4A0
:10173C00806205930023214605A80793089209931C
:10174C000694FFF7DDFA4FF4004301A801940393CC
:10175C00FFF798FB14B010BD0368B3F1804F0ED1A6
:10176C000023074931F8132092B22AB131F8132023
:10177C00013A92B221F813200133042BF2D17047B5
:10178C003C000020104B10B51A781C4612B1012AEF
:10179C0014D010BD4FF400710C48FFF7DDF8012890
:1017AC0008BF41F289320A4B08BF5A805B889BB252
:1017BC00012B07D1074A2370136010BD0022064984
:1017CC001A700A7010BD00BF34000020000C0140DC
:1017DC003C000020300000200900002038B5184BD8
:1017EC001C781D4634B3012C29D11648FEF74EFE49
:1017FC0021461448FEF7ECFC134C20B91148FEF7B7
:10180C0085FD80B220800F48FEF744FF40F2D922BC
:10181C0023889BB293424FF0000308D92B7001220E
:10182C00BDE838404FF400510848FFF79BB8084A10
:10183C00137038BD0221064A117001221A7038BD8E
:10184C0008000020640000202C0000200010014043
:10185C000900002008B54FF480610A48FFF77CF8B6
:10186C0038B90522084B1A704FF42F72074B9A8027
:10187C0008BD4FF480510348FFF76EF80028F0D0F4
:10188C0008BD00BF00080140090000203C000020FA
:10189C0010B5094C23784BB1012B0CD14FF480615E
:1018AC000648FFF759F830B9207010BD0322044BDD
:1018BC001A700123237010BD0A000020000801409B
:1018CC000900002010B5094C23784BB1012B0CD129
:1018DC004FF480510648FFF73FF830B9207010BD27
:1018EC000422044B1A700123237010BD0B0000203E
:1018FC000008014009000020194B9A88194B92B23C
:10190C000AB105221A701A78052A0AD8DFE802F003
:10191C0003231E12180A2822134B1B685A636422D5
:10192C009A6370475021104A1268516391630022E8
:10193C001A70704764210C4A126851633221F5E722
:10194C003221094A126851636421EFE70022064BE9
:10195C001B685A63E4E7044B32221B68F9E700BFAB
:10196C003C00002009000020940000202DE9804854
:10197C00102795B0FEF708FCFFF7B6FE3A4600219B
:10198C000DA800F08BFAA64B00249A694FF00108C1
:10199C004FF002094FF4005A3A439A619A694FF496
:1019AC0000513A400092009A9A699E4842F02002F7
:1019BC009A619A694FF0630B02F020020192019A2E
:1019CC009A69994E42F004029A619A69974D02F015
:1019DC0004020292029A9A6942F008029A619B6987
:1019EC00002203F008030393039BFEF7BBFF0DA932
:1019FC008C480F94CDF84090CDF834A0CDF83880B9
:101A0C00FEF7CAFE4FF440630DA989480D930E945E
:101A1C000F94FEF7C1FE4FF400730DA985480D938A
:101A2C000E940F94FEF7B8FE21463A460DA800F02E
:101A3C0035FA4FF0804240F2CF23304686E80C0056
:101A4C0006940794B4603461B461C6F80CB0FFF727
:101A5C001DFD4FF480530DA930460D93FFF77FFB0E
:101A6C0006A9304606940794FFF71AFE724B2846D7
:101A7C002B604FF48073AB604FF46023EC60EB6130
:101A8C006C616C600D940E940F942F61FEF782FDC7
:101A9C000DA928460D940F94CDF83880FEF73AFC2A
:101AAC000DA92846CDF83890FEF734FC03234FF0EF
:101ABC0004090DA928460E93FEF72CFC0DA9284607
:101ACC00CDF83890FEF726FC05230DA928460E9379
:101ADC00FEF720FC06230DA928460E93FEF71AFCF0
:101AEC0007230DA928460E93FEF714FC08230DA915
:101AFC0028460E93FEF70EFC09230DA928460E93DB
:101B0C00FEF708FC0A230DA928460E93FEF702FCEB
:101B1C000B230DA928460E93FEF7FCFB0C230DA9F5
:101B2C0028460E93FEF7F6FB0D230DA928460E93BF
:101B3C00FEF7F0FB0E230DA928460E93FEF7EAFBE9
:101B4C000F230DA928460E93FEF7E4FB0DA928469A
:101B5C000E97FEF7DFFB21461C2206A80494059481
:101B6C0000F09CF91C2221460DA800F097F94723A0
:101B7C00324D3349284685E80A00AC602C616C6113
:101B8C00AC61C5F80CB0FFF79BFC0DEB07012846C8
:101B9C0004940594FFF784FD6023224606A9284689
:101BAC0006930794089409940A940B940C94FFF7E9
:101BBC00CDFC4A4606A92846FFF7C8FC0DA92846C5
:101BCC000D940E940F94109411941394CDF848A086
:101BDC00FFF740FD284600F0B9F83046FFF7B4FA9D
:101BEC0021462846FFF720FD49462846FFF71CFDF5
:101BFC003222144B144C83F800802B685A639A637E
:101C0C00FFF7C0FD2368012BFAD1FFF7E7FDFFF7C3
:101C1C0021FEFFF73DFEFFF755FEFFF76DFEEFE7E8
:101C2C000010024000100140D4000020640000208D
:101C3C0000080140000C01400024014094000020E9
:101C4C00002C014009000020300000200E4B82B017
:101C5C009A6942F001029A619A6902F001020092BB
:101C6C00009ADA6942F08052DA61DB69074A03F0C4
:101C7C0080530193019B536823F0E06343F000739E
:101C8C00536002B0704700BF0010024000000140DA
:101C9C0010B5044686B01022002102A800F0FEF810
:101CAC002268104B9A421BD103F56C439A6902A926
:101CBC0042F400729A619A690B4802F40072009225
:101CCC00009A9A6942F004029A619B6903F004033A
:101CDC000193019B0123029303230393FEF75CFD05
:101CEC0006B010BD00240140000801400268084BFA
:101CFC0082B09A420AD103F564439A6942F40062B5
:101D0C009A619B6903F400630193019B02B07047D5
:101D1C00002C0140036807B5B3F1804F12D103F5D5
:101D2C000433DA691C2042F00102DA610022DB691B
:101D3C00114603F001030193019BFEF7D7FC1C2015
:101D4C00FEF708FD03B05DF804FB000010B5044677
:101D5C0086B01022002102A800F0A0F822680D4BDA
:101D6C009A4214D103F564439A6902A942F0040221
:101D7C009A619B69084803F004030193019B4FF49B
:101D8C0040730293022303930593FEF705FD06B0FF
:101D9C0010BD00BF002C0140000801407047FEE759
:101DAC00FEE7FEE7FEE7704770477047FEF7FEB9A7
:101DBC000148FFF791BA00BFD40000200F4B1A68FE
:101DCC0042F001021A6059680D4A0A405A601A68BA
:101DDC0022F0847222F480321A601A6822F4802273
:101DEC001A605A6822F4FE025A604FF41F029A607D
:101DFC004FF00062034B9A60704700BF0010024026
:101E0C000000FFF800ED00E0002103E00B4B5B58F5
:101E1C00435004310A480B4B42189A42F6D30A4AF3
:101E2C0002E0002342F8043B084B9A42F9D3FFF737
:101E3C00C5FF00F00FF8FFF799FD7047101F000861
:101E4C0000000020100000201000002014010020D1
:101E5C00FEE7000070B500250C4E0D4CA41BA41021
:101E6C00A54209D100F022F800250A4E0A4CA41B09
:101E7C00A410A54205D170BD56F825309847013500
:101E8C00EEE756F8253098470135F2E7081F0008B1
:101E9C00081F0008081F00080C1F00080346024416
:101EAC00934200D1704703F8011BF9E7F8B500BF66
:101EBC00F8BC08BC9E467047F8B500BFF8BC08BC1F
:041ECC009E46704777
:101ED00002030405060708090A0B0C0D0E0F10106B
:101EE00002030405060708090A0B0C0D0E0F10105B
:101EF00000000000000000000102030406070809BA
:081F00000000000001020304CF
:041F0800310100089B
:041F0C000D010008BB
:101F100001000000100000000101010100A24A04BC
:0400000508001E15BC
:00000001FF
